{
  "contractName": "ERC721Holder",
  "abi": [
    {
      "constant": false,
      "inputs": [
        {
          "name": "",
          "type": "address"
        },
        {
          "name": "",
          "type": "uint256"
        },
        {
          "name": "",
          "type": "bytes"
        }
      ],
      "name": "onERC721Received",
      "outputs": [
        {
          "name": "",
          "type": "bytes4"
        }
      ],
      "payable": false,
      "stateMutability": "nonpayable",
      "type": "function"
    }
  ],
  "bytecode": "0x608060405234801561001057600080fd5b50610186806100206000396000f300608060405260043610610041576000357c0100000000000000000000000000000000000000000000000000000000900463ffffffff168063f0b9e5ba14610046575b600080fd5b34801561005257600080fd5b506100d7600480360381019080803573ffffffffffffffffffffffffffffffffffffffff16906020019092919080359060200190929190803590602001908201803590602001908080601f016020809104026020016040519081016040528093929190818152602001838380828437820191505050505050919291929050505061012b565b60405180827bffffffffffffffffffffffffffffffffffffffffffffffffffffffff19167bffffffffffffffffffffffffffffffffffffffffffffffffffffffff1916815260200191505060405180910390f35b600063f0b9e5ba7c010000000000000000000000000000000000000000000000000000000002905093925050505600a165627a7a72305820cdb1d43135a0181ea6d5cd453d8a4df1e98761724a5cba009aa3bd207f7c683d0029",
  "source": "pragma solidity ^0.4.23;\n\nimport \"./ERC721Receiver.sol\";\n\n\ncontract ERC721Holder is ERC721Receiver {\n  function onERC721Received(address, uint256, bytes) public returns(bytes4) {\n    return ERC721_RECEIVED;\n  }\n}\n",
  "sourcePath": "G:\\Root\\Blockchain\\ERC721Bounty\\contracts\\ERC721\\ERC721Holder.sol",
  "compiler": {
    "name": "solc",
    "version": "0.4.23+commit.124ca40d.Emscripten.clang"
  },
  "schemaVersion": "2.0.0",
  "updatedAt": "2018-05-23T11:50:25.084Z"
}